:020000040800F2
:1000000000200020D52B0008312A0008372A0008DC
:1000100000000000000000000000000000000000E0
:100020000000000000000000000000003D2A000861
:100030000000000000000000472A0008512A0008C4
:10004000252C000800000000252C0008252C0008A5
:10005000252C0008252C0008252C0008252C00083C
:1000600000000000612A0008252C0008252C00084B
:10007000792A0008252C0008252C00080000000023
:10008000252C00080000000000000000252C0008BE
:1000900000000000252C0008252C0008252C000855
:1000A000252C0008252C0008252C0008252C0008EC
:0800B000252C000800000000EF
:1000B80010B5064C2378002B07D1054B002B02D036
:1000C800044800E000BF0123237010BD7800002021
:1000D80000000000186A0008044B10B5002B03D07C
:1000E8000349044800E000BF10BDC04600000000FE
:1000F8007C000020186A000803B4714649084000D3
:100108004900095E49008E4403BC70470022430839
:100118008B4274D303098B425FD3030A8B4244D3C7
:10012800030B8B4228D3030C8B420DD3FF22090209
:1001380012BA030C8B4202D31212090265D0030BC8
:100148008B4219D300E0090AC30B8B4201D3CB03BE
:10015800C01A5241830B8B4201D38B03C01A524100
:10016800430B8B4201D34B03C01A5241030B8B4202
:1001780001D30B03C01A5241C30A8B4201D3CB02ED
:10018800C01A5241830A8B4201D38B02C01A5241D2
:10019800430A8B4201D34B02C01A5241030A8B42D5
:1001A80001D30B02C01A5241CDD2C3098B4201D3ED
:1001B800CB01C01A524183098B4201D38B01C01A6B
:1001C800524143098B4201D34B01C01A52410309E2
:1001D8008B4201D30B01C01A5241C3088B4201D391
:1001E800CB00C01A524183088B4201D38B00C01A3E
:1001F800524143088B4201D34B00C01A5241411A65
:1002080000D20146524110467047FFE701B5002071
:1002180000F006F802BDC0460029F7D076E770471F
:100228007047C0468446100062468C4619006346F3
:1002380000E0C0461FB501F0C9F8002801D400212C
:10024800C8421FBD10B501F019F84042013010BD79
:1002580010B501F0BBF8002801DB002010BD01201B
:1002680010BDC04610B501F0B1F8002801DD00202E
:1002780010BD012010BDC04610B501F041F800289E
:1002880001DC002010BD012010BDC04610B501F0F2
:1002980037F8002801DA002010BD012010BDC04643
:1002A80043025B0AF0B54F4646469946D646C30F09
:1002B80045009846C0B54B460F1C2D0E00D1CBE02B
:1002C800FF2D00D1CFE08022DB00D2041A430023A7
:1002D800914600269A467F3D7C027B00640A1B0EED
:1002E800FF0F002B00D1A9E0FF2B11D08022E400E2
:1002F800D204144342467F3B5B197A400020D2B2B5
:100308005D1C0A2E13DD3A000B2E47D047463FE00E
:100318002B00FF33002C1ED1022216434246013522
:100328007A40D2B2FF350A2E00DDE4E00220022E28
:100338001CDC013E012E42D802283DD0012866D19E
:1003480000200021C0050843D2071043E0BCBA468C
:10035800B146A846F0BD03221643424601357A400D
:10036800D2B2FF350A2E00DDE4E003200121B140BE
:10037800A626F60031420AD19026B600314216D19F
:10038800B93EFF3E0E421AD0A146824600E0170051
:1003980053463A00022B0FD04C4650460328CDD185
:1003A8008021C90321434902FF20490ACAE7802165
:1003B8000022FF20C903C5E7FF200021C2E7200C67
:1003C80049462404240C27000E0C0904090C744324
:1003D8004F4346434843390C001909188C4203D946
:1003E80080204002844666443F0408043F0CC0193C
:1003F8008401671EBC41090C800E891904438901D8
:100408000C43090171D5012361081C400C432B00E2
:100418007F33002B51DD610704D00F2121400429CF
:1004280000D00434210103D5434B1C402B008033FA
:10043800FE2BC1DCA101490AD8B283E7002C2CD1DC
:10044800012342461E432B007A400120D2B25D1C94
:100458000A2E00DD57E76AE7002B10D10123042696
:1004680000259A4638E7002B04D102230826FF25E9
:100478009A4631E703230C26FF259A462CE748467F
:1004880001F0E8FE4A46431F76259A4000236D4254
:10049800914600269A462D1A1EE7200001F0DAFE42
:1004A8004246431F9C402B1A763B7A400020D2B22A
:1004B8005D1C0A2E00DD26E739E70121CB1A1B2B2C
:1004C80000DD3DE79E352100AC40D940631E9C41CC
:1004D80021434B0704D00F230B40042B00D00431D9
:1004E8004B0104D5012000212CE71D008FE789016D
:1004F8000020490A26E702230F2E0CD180214B4603
:10050800C9030B420DD00C420BD1214349023A00DA
:10051800FF20490A16E70B2E00D0F7E6A1469A46B7
:1005280036E780214B46C903194349024246FF205A
:10053800490A07E70323DFE7FFFFFFF770B5002845
:1005480013D0C317C5185D40C40F280001F082FE00
:100558009E2301001B1A962B0FDC082831D008397E
:100568008D406D026D0AD8B202E0002400200025FB
:10057800C0052843E407204370BD992B0CDD0522F4
:10058800121A2800D040020008001B3085402800BD
:10059800451EA84102431500052916DC2A000F480C
:1005A80002406E0709D00F263540042D05D00432CD
:1005B800550102D59F2302405B1A9201550AD8B211
:1005C800D6E76D0296206D0AD2E74A1F95402A00A9
:1005D800024802406E07F0D0E5E7C046FFFFFFFB88
:1005E800F0B54F464646D6460400C0B51F000B037B
:1005F80010004E005B0ACD0F610F7A001943E3002B
:100608003C03FF0FBC46640A470F2743760D520D83
:10061800C000B9468046B71A654500D19BE0002F57
:1006280000DC84E0002A00D1BEE0C84A964200D12E
:1006380024E180224C4612041443A146382F00DDE1
:1006480067E11F2F00DDD6E120224C46D21B9440E3
:10065800A2464446FC40200054460443404690408D
:10066800421E90414A46FA400443891A1C1BA34281
:10067800924152428B1A9A4653461B0200D4D4E048
:1006880053465A02530A9A465346002B00D104E1B6
:10069800504601F0DFFD0300083B20222000D21A5B
:1006A8005146D040994002009C400A43B34200DAC8
:1006B80002E19B1B591C1F2900DDA7E02023100025
:1006C80026005B1A9C409840CE40CA40631E9C415D
:1006D8003043924600260443630709D00F23234082
:1006E800042B05D0231DA342A4416442A2441C004C
:1006F80053461B0200D49BE0944B01369E4200D126
:10070800B8E053469249E4080B4019005B072343BD
:1007180072054C02240B520D1205ED0722432A43A1
:1007280018001100E0BCBA46B146A846F0BD002F3B
:1007380048D0971B002E00D00EE10C001C4300D1BE
:10074800B7E17C1E012F00D126E2804DAF4200D1D7
:10075800D5E1270007E1002F00DCB2E0002A47D0EE
:100768007A4A964200D189E080224C46120414430A
:10077800A146382F6BDC1F2F00DC6EE13A0048469B
:10078800203AD0408446202F07D040224846D21B2A
:10079800904002004046104380464046421E904129
:1007A80062460400144357E04A46024300D103E17D
:1007B8007A1E012F00D193E1644CA74200D18AE14F
:1007C80017003BE7634C721C224200D0E0E00A00AD
:1007D8001A43002E00D074E1002A00D1D0E14A4625
:1007E800024300D0E3E14A07DB081343C90829E0C4
:1007F8004A46024300D17DE17A1E012F00D1E0E094
:10080800524CA74200D166E11700B2E710001F3B27
:10081800D840202903D040235B1A9A401443631E12
:100828009C41002300269A460443630700D055E7FD
:100838005246E3085207134352463700D108434A49
:1008480097421FD009037A050C0B520D64E7424604
:100858004C461443621E9441E4189C429241524211
:1008680092468A4453461B02DFD5384B01369E42D6
:1008780000D0B3E03200002400234DE74A07DB082C
:100888001343C9081A000A4300D100E28024240354
:100898000C4324032D4A240B3EE7200001F0DAFC28
:1008A800030018331F2B00DCF7E6220008388240CB
:1008B8000024B34200DBFCE6F61A254B1A409246A8
:1008C8000AE7002F2BD0971B002E00D1B8E01F4C51
:1008D800A24200D11CE1802424042143382F00DDEA
:1008E8001EE11F2F00DD9EE120260C00F61B1800DC
:1008F800B340B440F8405E1EB341F94004431C4382
:100908008944444444459B415B424B449A46160003
:10091800A8E742464C461443621E9441A6E60D4C95
:10092800721C224200D0A8E00A001A43002E00D010
:100938000AE1002A00D15EE14A46024300D061E1A3
:100948004A07DB081343C9087CE7C046FF070000D5
:10095800FFFF7FFFFE070000CF4CA24200D1CEE090
:10096800802424042143382F5BDC1F2F00DDDCE0CA
:1009780020250C00ED1B1E00AB40AC40FE405D1E68
:10098800AB413443F9401C434B465B1A99464CE053
:100998004A461C1A881AA3429241524292460200C1
:1009A8005046121A9246120278D45346234300D076
:1009B8006AE60021002545E74A07DB081343C90812
:1009C8003DE71C189C429B4149448A465B429A4435
:1009D800534601261B0200D427E702265246AF4B96
:1009E80001211A401300214062080A43DC075B0812
:1009F8009A46144370E63A004C46203AD440A4463E
:100A0800202F07D040224846D21B90400200404683
:100A1800104380464046421E9041624604001443FB
:100A280024E619430C00631E9C4143461C1BA04549
:100A38009B4149465B42CB1A9A46654616001BE61F
:100A48000C001C4300D1C7E07C1E012F00D1F9E047
:100A5800914EB7425CD0270040E720224C464046E2
:100A6800D21B9440F840044340469040421E9041B7
:100A78004A46FA4004438918EEE6874CA24200D160
:100A8800F9E6181898429B4149445B42CB18DC07A9
:100A980040085B089A4616000443C6E64246D41A44
:100AA800A04580414B464042591A0B1A9A46654662
:100AB800EAE54B464A46C0085B0765460343D1084A
:100AC800BDE6002A00D08EE04B46034317D18021B3
:100AD80000250903DAE64A07DB081343C908D1E60B
:100AE8001C1A4A46A3429B41891A5B42CB1A9A4672
:100AF8000126C1E54A07DB081343C9089FE64346B8
:100B0800D8084B464A465B0765460343D108B9E611
:100B18004346D8084B464A465B070343D108B1E62B
:100B280019430C00631E9C41EBE63C000D00203C81
:100B3800E540202F03D04024E41BA1400B431C00B8
:100B4800631E9C412C4370E7002AE1D04A460243C9
:100B5800C1D04A07DB0813438022C9081203114297
:100B680008D04846C408144204D143462100DB0893
:100B7800420713435A0FDB005207DB08134381E691
:100B88004B46034300D114E74B464A46C0085B076F
:100B980065460343D10855E6C41AA04580414B4633
:100BA8004042591A0B1A9A466546012664E51C1AF2
:100BB8004A46A34280418A1A4042121A92461202B9
:100BC80049D54246D41AA04580414B464042591A5D
:100BD8000B1A9A4665467FE54B464A46C0085B07AE
:100BE8000343D1082BE64A46DB08024338D14A07BB
:100BF8001343C90846E64B464A46C0085B07034309
:100C0800D1081FE61C189C429B4149448A465B4216
:100C18009A4453461B0200D407E652461F4B01264E
:100C28001A40924601E63C000E00203CE640202F88
:100C380003D04024E41BA1400B431C00631E9C41CD
:100C480034435EE643448342804149448A464042F5
:100C58001C008244BCE65346234300D1A9E6E4E5E0
:100C68004A0713438022C9081203114209D0484693
:100C7800C408144205D1434665462100DB084207F3
:100C880013435A0FDB00DB0852071343FAE500232E
:100C9800014A1C0040E5C046FF070000FFFF7FFF38
:100CA800F0B557464E464546DE46E0B50C031F00F4
:100CB8004B0081469246050085B0240B5B0DCE0F94
:100CC800002B00D152E1D24A934200D16EE1420F8B
:100CD800E40014438022120422439046CD4AC50002
:100CE80093469B440023994600933C037B0050465F
:100CF800240B5B0DFF0F002B00D11AE1C44A93426D
:100D080000D15EE1420FE40022438024240414430E
:100D1800C04AC10094465A466344D31A9B460020F1
:100D280033007B409A464B460F2B27D8BA4A9B0084
:100D3800D3589F46B246009B022B16D0032B00D1F6
:100D480087E2012B00D0D5E00023002200251B05F7
:100D580013435246D20713432800190005B0F0BCCC
:100D6800BB46B246A946A046F0BD00220025A84BC6
:100D7800EDE7BA46A0460D000090DCE7444500D2F6
:100D8800C4E100D1BFE101235B429C462E004046EE
:100D98000025E34423020C0E1C431B0C9946230434
:100DA8000A021F0C494600920197FFF735FA020024
:100DB8007A430B04310C804619438A4207D9012330
:100DC8005B429C460919E0448C4200D801E2881A2B
:100DD8004946FFF721FA019A360442430904360CC2
:100DE80003000E43B24204D93619013BB44200D87D
:100DF800E9E1B01A4246009E12041A43330C1F0060
:100E0800110C9046029313043204160C32001B0C8A
:100E18005A4303967B434E437943170CBC469B19B0
:100E280063449E4203D980267602B44661441E0C70
:100E3800711816041B04360C9E19884202D312D16D
:100E4800B54210D243465A1E009B9C4665441F007B
:100E58009D429B415B421B19C018844200D29EE10F
:100E680000D199E19046AE1BB542AD41401A6D42A2
:100E7800401B844200D1D2E14946FFF7CDF9019ADF
:100E88000B044243310C050019438A4200D96CE136
:100E9800881A4946FFF7C0F9019A36044243090403
:100EA800360C03000E43B24200D953E10398B61A38
:100EB80002002D041D43029F2B041B0C5A437B4345
:100EC8009C46290C4843130C844463447943984254
:100ED80003D98020400284466144180C12041B0484
:100EE800120C40189B18864200D200E100D1FBE0AA
:100EF80001231D43494B5B44002B00DCAAE06A0731
:100F080000D03DE1E9084246D20106D54246444BAD
:100F18001A4080239046DB005B44424A934200DD3E
:100F280023E742465B05550752020D43120B5B0D42
:100F38000DE75146214300D17CE0002C00D1FBE0B5
:100F4800200001F087F902000B3A1D239B1A524634
:100F58000100DA40534608398B408C40190014438D
:100F6800314B58449B4683440020D9E60300234371
:100F7800984644D0002C00D1CFE0200001F06AF957
:100F8800010002000B391D235B1A49461000D940A5
:100F9800083884400B004D46234398468540234B30
:100FA8009B1A9B460023994600939EE60200224323
:100FB80090461DD108229B460223002591460093A6
:100FC80093E65146214309D102234A461A43184B56
:100FD80091469C4600240220E344A1E603234A46A6
:100FE8001A43134B91469C4651460320E34497E627
:100FF8000C229B460323A0469146009375E60423E2
:10100800994600239B460133002500936DE6C046B0
:10101800FF07000001FCFFFF6C6A0008FF030000E7
:10102800FFFFFFFEFE070000F30300000DFCFFFFBB
:1010380001F8FFFF4A4601231A4391460024012084
:101048006EE6002380229A460025884B12037EE62E
:1010580001256D420122D21A382A00DD74E61F2AC2
:1010680000DCBDE01F214942CB1A4146D9400B00A4
:10107800202A04D041467E4A5A4491400D43290013
:101088004A1E9141194307231D0000220D400B42BF
:1010980000D1D0E00F2200230A40042A00D1C7E083
:1010A8000A1D8A42894149425B1811001A0200D47C
:1010B800BEE001230022002549E6802243461203B0
:1010C800134208D0144206D122431203BA460D0037
:1010D800664B120B3BE68022434612031A43120367
:1010E800B246624B120B32E6002B00D102E7A6197A
:1010F8006A1EA64200D289E0864200D29FE000D153
:10110800AFE01500F4E6A94200D93CE64346DE0705
:1011180058086B081E43ED073CE601F09BF80100F8
:101128000200153120321C2900DC2CE74B46083818
:1011380083400025984632E701F08CF803001A0036
:10114800153220301C2A00DCFFE65446083B0021FB
:101158009C4005E73619013BB44200D9A6E6B242E5
:1011680000D8A3E6831E3619A0E60919013D8C4272
:1011780000D98DE68A4200D88AE6851E091987E6D5
:101188000F222A40042A00D1BCE6291DA942AD41FC
:101198006D42C908A844B6E6AF4200D962E681426A
:1011A80004D800D05EE6AE4200D85BE602235B427C
:1011B8009C46009BE0449C4665449D429B415B42A3
:1011C8001B19C0184FE6B24200D812E6831E361922
:1011D8000FE68A4200D8FAE5831E98460919F6E513
:1011E800244B28005B4441469D409940D0406B1EEB
:1011F8009D41434601432943D3404A0700D155E75F
:101208000F220A40042A00D04AE74FE71500864219
:1012180000D06DE6009A9A4200D069E66AE6164B5D
:101228005B44002B00DC13E701250021A8446AE693
:101238005D075B021A0BC90800230D4387E5009977
:10124800023D4A008A42BF417F423F19F619009287
:10125800DDE78022434612031A431203034B120BA5
:1012680075E500999942EAD31500D3E7FF07000016
:101278003E0400001E040000FF030000F0B54E46C7
:101288004546DE4657469046E0B517001A03120B4E
:101298000500844619480E034C0091465A00DB0F9E
:1012A8009B46360B640DC90F520D844219D08242F9
:1012B80010D0012094420ED14E450CD10120C445D6
:1012C80009D1594517D0002C05D130002843431EB9
:1012D800984100E00120F0BCBB46B246A946A046B2
:1012E800F0BD330001202B43F5D1A242F3D14B4688
:1012F8003B43F0D1E2E70020EDE7C046FF070000DE
:10130800F0B54746CE460400180016001B031B0B19
:101318002D4D4A00994680B543000F03A446B046B8
:101328003F0B520DC90F5B0DC00FAA4221D0AB4233
:1013380013D0002A22D13C43002B02D14D462E4324
:1013480022D0002C10D0814222D00220013908403E
:101358000138C0BCB946B046F0BD4D462E4329D130
:10136800002AF0D13C43EED10028F2D101204042BE
:10137800EFE73D0025431DD19342EED0002BE2D18B
:101388004C462643DFD1E0E70020002CE1D0DCE723
:101398009A420ADCE8DB4F45D7D80ED000204F45EB
:1013A800D7D20029E2D00800D3E743425841400091
:1013B8000138CEE702204042CBE7C445C5D800201B
:1013C800C445C6D2EDE7C046FF070000F0B5474662
:1013D800CE460400180016001B031B0B2C4D4A00B8
:1013E800994680B543000F03A446B0463F0B520D03
:1013F800C90F5B0DC00FAA420DD0AB4210D0002A16
:1014080027D13C43002B11D14D462E430ED100204D
:10141800002C15D00EE03D00254310D1934218D181
:101428004D462E430BD1002A02D13C43002C0BD051
:10143800814214D0022001390840013800E002201E
:10144800C0BCB946B046F0BD0028F9D101204042E1
:10145800F6E7002BECD14C462643E9D1EAE79A425D
:1014680004DD4342584140000138E9E79A42EBDB8A
:101478004F45DFD806D000204F45E1D20029E5D0FE
:101488000800DDE7C445D5D80020C445D8D2F5E723
:10149800FF070000F0B54546DE4657464E46E0B524
:1014A8001F000B031B0B9B464D00CB0F04009146FE
:1014B800984687B06D0D00D1CDE1CE4B9D4200D14D
:1014C800E9E15A46430FD2001343802212041A431B
:1014D800C3009A46C84B93469C46002300266544A1
:1014E80000933C037B004846240B5B0DFF0F002B49
:1014F80000D189E1BF4A934219D0420FE400224348
:10150800802424041443BC4A002194464246634480
:101518005B190193019B7A400133C000D2B2029358
:101528000A2E1CDD3A000B2E5ED0474656E049468F
:10153800B04B2143EB18019300292AD180200222C5
:1015480000012B0084461643424663447A40D2B2D7
:1015580002930A2E00DD31E2002000240221022E2F
:1015680026DC013E012E52D802294CD0012900D098
:1015780018E10023002400251B052343D207134349
:101588002800190007B0F0BCBB46B246A946A046E1
:10159800F0BD8021032209012B008C4616434246E8
:1015A80063447A40D2B202930A2E00DD28E2032176
:1015B8000125B540AC46A6266346F60035403342C1
:1015C8000BD19026B600334218D1B93EFF3E1E42D9
:1015D8001DD0A3468246009100E0170000993A000A
:1015E800022910D05C4650460329BFD180231B0333
:1015F8001C43240305007F4B240BBDE780240022F5
:101608007C4B2403B8E7002400257A4BB4E7534603
:101618001E04360C1F0C3300010C0004000C43435D
:10162800984603007B43994633004B439C46434608
:101638000D001B0C9A467D43CC44D4440095E145EB
:1016480004D980235B0299464D44009563461B0CE0
:101658001D0063461B049C4643461B041B0C98460E
:10166800634643440393230C984633002404240C14
:1016780063439C4623007B43994643465E435F434E
:101688004E446346B2461E0C5644B14503D98023E6
:101698005B0299464F44330C99463B004B440593F3
:1016A8006346AC461F043F0C3604F619B44463463F
:1016B80004935B461B0C9C465B461F043F0C3B0097
:1016C80043439946634643439A464B4660461B0C40
:1016D8009B4648437943514459448A4503D980235A
:1016E8005B029A4650440B0C9A464B461B041B0C53
:1016F80099463B0063430904454649449946634675
:101708005C436B439C464B461B0C98466F433F1902
:1017180047445044BC4203D980235B029846C444E2
:10172800049B009D98464544B542B641734298468D
:101738004B461E04059B3C049946360CA4194C44A0
:10174800A14683466E18C1448E428941CB445D460A
:1017580049426D189C42A441C1459B418345804143
:101768008D4289415B4264421C434042039B49428B
:10177800014370023F0C1843E419471EB84164182E
:101788006444F60D61023043EC0D6E020C433043A5
:10179800C90100D4F1E00121430801400B43E007EF
:1017A800184364081549029B8C466344002B00DCEF
:1017B80097E0410709D00F210140042905D0011DF8
:1017C80081428041404224180800E10106D5802169
:1017D800C9008C460A4B1C40029B634409498B4252
:1017E80000DD10E76107C50864025B050D43240BA3
:1017F8005B0DC1E6FF07000001FCFFFFFF030000CF
:10180800FFFFFFFEFE0700004B46234359D0002C84
:1018180000D1A3E0200000F01DFD010003000B39FA
:101828001D22521A49461800D1404A4608388240BB
:10183800844010000C43744AEB1A944642466344B1
:101848000193019B7A4001330021D2B202930A2E00
:1018580000DD67E683E65B4603439A462AD05B468B
:10186800002B6DD0584600F0F5FC010003000B3941
:101878001D22521A210018005D46D14008388540C3
:101888000A0084402A439346A2465F4D0026ED1A7B
:101898000023009325E65B4603439A4605D10023BF
:1018A8009B460233082600931BE6032382460C2638
:1018B800009316E600239B46013304260025009377
:1018C8000FE64246013301951E43019B7A400133DE
:1018D800002400200121D2B202930A2E00DD21E665
:1018E8003DE60121C91A382900DD42E61F2947DDF6
:1018F8001F2625007642F31ADD402B00202905D04B
:101908004249029D8C466544AC402043411E8841B3
:10191800184307231D000024054003424AD00F2323
:1019280000240340042B42D0031D834280414042DF
:101938002418180023023AD50123002400251BE6A9
:1019480000F088FC01000300153120331C298FDDCD
:101958000838002284409246A34696E700F07AFCB5
:1019680001000300153120331C2900DC58E7020070
:101978004C46083A002094405DE7019B029311E72A
:10198800234B26009C460300029DCB406544AE4095
:101998001E430300AB40581E834130001843CC401F
:1019A8004307C7D00F230340042BBDD1C2E7650707
:1019B8006402240BC00800230543DDE5002502234B
:1019C8000F2E0CD180245B46240323420ED02142E3
:1019D8000CD10C4324033A000E4B240BCCE50B2E00
:1019E80000D0A2E58B46AA460093F7E580245B4623
:1019F80024031C43240342465546064B240BBBE5EF
:101A08004D4621000323DBE70DFCFFFF3E040000E9
:101A18001E040000FF070000F0B557464E46454635
:101A2800DE46E0B50D000400190010002B035B0A28
:101A3800620F1A43E3000C03640A470F2743D04C94
:101A48006E00914683B04A00C0009846A246760DC3
:101A5800ED0F520DC90F0190A24200D1B9E0012447
:101A680061408B468D4200D18DE0B41AA446002C0B
:101A780000DCB7E0002A00D1CBE0C14A964200D191
:101A880086E18022120417436246382A00DDA4E169
:101A98001F2A00DD1DE2614620223C00521A010087
:101AA80090409440421E90416246A0466446D7400A
:101AB8004A46E1404446D21B91460C4304431C1B52
:101AC800A34292414B4652429B1A9A4653461B02E6
:101AD80000D42BE153465A02530A9A465346002B28
:101AE80000D166E1504600F0B5FB0300083B202218
:101AF8002000D21A5146D040994002009C400A4327
:101B08009E4200DD64E19B1B591C1F2900DDFEE09D
:101B18002023100026005B1A9C409840CE40CA4003
:101B2800631E9C413043924600260443630709D054
:101B38000F232340042B05D0231DA342A441644254
:101B4800A2441C0053461B0200D4F2E08C4B013621
:101B58009E4200D10FE153468A49E4080B40190020
:101B68005B07234372054C02240B520D12052243D6
:101B7800ED072A431800110003B0F0BCBB46B2467B
:101B8800A946A046F0BDB41AA446002C59DD002A87
:101B980000D1B0E0564500D1FAE080221204174384
:101BA8006246382A00DDD4E01F2A00DCC0E1390093
:101BB800203AD1406246202A06D064464022121BB1
:101BC8003C00944004430194019C621E94410C43E0
:101BD800C3E03C0004432BD08B468D422ED06A4C88
:101BE800A446B4446446002C5FD0941BA446002E3F
:101BF80000D020E14C461C4300D1C7E161464C1E91
:101C0800012900D123E25E4DAC4500D1D8E1A446BC
:101C18001AE13A00024300D1E4E02200013A012C23
:101C280000D1C3E156498C4200D1B1E094462BE77C
:101C3800012461408B468D4200D016E752498C46FC
:101C4800B4446446002C00D1D3E0911B8C46002E8E
:101C580000D15EE14A498A4200D1BEE180214C466A
:101C680009040C43A1466146382900DDBAE11F2961
:101C780000DD27E22024641A4946A1401E00884658
:101C88006146A340CE4041465C1EA34131431943FF
:101C98000C0063464946D9407F18241884429B416A
:101CA8005B429A461600BA445DE0384C721C2242E8
:101CB80000D0DFE04A461A43002E00D05CE1002A3B
:101CC80000D1CFE13A00024300D17FE11C1A4A4615
:101CD800A3428941D21B4942521A9246120200D4A9
:101CE8000AE2C41AA04280414B464042FF1A3B1AFE
:101CF8009A465D461AE73A00024373D02200013A39
:101D0800012C00D1CBE0544542D0944648E710005E
:101D18001F3BD840202903D040235B1A9A40144324
:101D2800631E9C41002300269A460443630700D0A3
:101D3800FEE65246E308520713435246B446D20819
:101D48000F498C452AD01203140B62465205520DD6
:101D58000CE73C000443621E9441E4189C42924103
:101D680052424A44924653461B02DFD5044B013681
:101D78009E4200D0A0E0320000240023F6E6C046D0
:101D8800FF070000FFFF7FFF01F8FFFFFE070000CD
:101D9800DB084A46520713434A46D2081900114342
:101DA80000D1B5E18024240314432403D54A240B2D
:101DB800DCE6200000F04EFA030018331F2B00DC8D
:101DC80095E622000838824000249E4200DC9AE60C
:101DD800F61ACD4B1A409246A8E63C000443621E10
:101DE80094416CE64A46DB08520713434A46D20838
:101DF800A6E7C64C721C224200D0ACE04A461A4301
:101E0800002E00D005E1002A00D156E13A00024335
:101E180000D1DBE01C189C429B414F44BA465B4210
:101E28009A4453461B0200D480E75246B64B01261B
:101E38001A4092467AE7B34CA24200D1C0E080240F
:101E48004D4624042543A9466446382C53DC614694
:101E58001F2C00DDCDE020251E002D1B4C46AB407D
:101E6800AC40CE405D1EAB41344323434C46CC408E
:101E78003F1B45E04A461C1AD11BA34292415242DD
:101E880092460A005146521A9246120200D583E041
:101E98005346234300D021E60022002553E71C18AF
:101EA8009C429B414F44BA465B429A4453460126A2
:101EB8001B0200D43AE702265246934B01211A40EE
:101EC8001300214062080A43DC075B089A46144362
:101ED8002CE63900203AD1406246202A06D06446D2
:101EE8004022121B3C00944004430194019C621E52
:101EF80094410C43E3E5494619430B005C1EA3419A
:101F0800C41AA0429B415B42FB1A9A465D461600E2
:101F1800DCE54946194300D1AEE061466446013923
:101F2800012C00D1E0E0774CA44556D08C469AE6C7
:101F3800614620223C00521A944001009040A0467D
:101F48006446421E90416246E1404446D7400C43F5
:101F58000443B94401E76B498A4200D10CE71818D9
:101F680098429B414F445B42FB18DC0740085B08E2
:101F78009A4616000443D9E6002A00D081E03B00C7
:101F880003431DD18022002512030BE7C0087B07FD
:101F98005D460343FA08D3E6C41AA04280414B4683
:101FA8004042FF1A3B1A9A465D4697E51C1A4A4674
:101FB800A3429B41D71B5B42FB1A9A46012685E543
:101FC800C0087B075D460343FA08E7E64A46DB0894
:101FD800520713434A46D208B5E6C0087B070343B5
:101FE800FA08DBE6494619430B00591E8B411C00D1
:101FF80053E64D46203CE540202905D04024641A8C
:102008004946A1400B43984643465C1EA3412B43D7
:1020180076E7002AE1D03A00DB08024300D1B8E6AF
:102028004A465207802413434A462403D2082242D0
:1020380007D0FE08264204D15D463200C3087F0758
:102048003B43590FDB004907DB080B43A6E6C41ADC
:10205800A04280414B464042FF1A3B1A9A465D46D1
:10206800012633E53B00034300D115E7C0087B0791
:102078005D460343FA0866E6C0087B070343FA088F
:102088005EE63A00DB08024300D182E64A46520780
:10209800802413434A462403D208224207D0FE086C
:1020A800264204D15D463200C3087F073B43590FDF
:1020B800DB00DB0849070B4370E6C0087B070343D6
:1020C800FA0840E64C462039CC406146202906D023
:1020D80066464021891B4E468E4033439846434608
:1020E800591E8B411C43D8E51C18844280414F443B
:1020F800BA4640428244D9E65346234300D1CBE650
:1021080014E6C046FF070000FFFF7FFFFE07000040
:102118000023014A1C0029E5FF07000070B50500EF
:102128000C481C0316005B000A034900120B490DFA
:10213800240B5B0D814208D0064A0020934203D14C
:1021480020003043431E984170BD01202A43FBD133
:10215800F2E7C046FF0700000A0030B5134C5300F1
:1021680009030500090B00205B0DD20FA34204DD13
:102178000F48834202DD0F4BD01830BD802040034A
:1021880001430D48C01A1F2808DD0C48C31AD9405E
:102198000B005842002AF0D11800EEE7084CC54061
:1021A800A446634499400B002B43F2E7FE0300006A
:1021B8001D040000FFFFFF7F33040000130400002C
:1021C800EDFBFFFF70B542024300C40FFE201B0E5B
:1021D800591C550A08420CD0E02189008C466D072D
:1021E800120B63441B051343E4072343280019001B
:1021F80070BD002B14D1002D1BD0280000F02AF848
:102208000A281CDC0B232A001B1ADA4003001533AA
:102218009D400E4B12031B1A5B05120B5B0DE1E789
:10222800002D09D0130B802212031A436D07084BA7
:10223800D8E700230022D5E70022054BD2E70300A8
:102248002A000B3B9A400025E3E7C04689030000BB
:10225800FF0700001C2101231B04984201D3000C36
:1022680010391B0A984201D3000A08391B09984201
:1022780001D30009043902A2105C40187047C04617
:102288000403020201010101000000000000000037
:1022980080B582B000AF786001235B42391D0448E5
:1022A800012202F01DFF7B681800BD4602B080BD08
:1022B80054010020B0B58AB000AF78600022002336
:1022C8003A627B6200220023BA61FB61002200238C
:1022D8003A617B617B6801221A737B6818697B68A5
:1022E800143396229200190001F040F800F014FD12
:1022F8000300BB6008E000F00FFD0200BB68D31AC2
:10230800642B01D9022312E17B681B7B012BF2D1DC
:102318007B681B7B022B00D008E10E23FB180022F0
:102328001A80A9E00E243B191A8813005B009B1839
:102338007A6808335B00D31804331B881800FEF74B
:10234800FDF8021C7B685B68191C101CFDF7A8FFD0
:10235800031C181CFFF736FF02000B003A627B6271
:102368007B689B68181CFFF72DFF02000B00386A7A
:10237800796AFFF751FB02000B003A627B623A6A06
:102388007B6A386A796AFFF785F802000B003A62BF
:102398007B623B191A8813005B009B1801337A682B
:1023A80008335B00D31804331B881800FEF7C6F8FF
:1023B800021C7B685B68191C101CFDF771FF031C6D
:1023C800181CFFF7FFFE02000B00BA61FB617B6877
:1023D8009B68181CFFF7F6FE02000B00B869F96944
:1023E800FFF71AFB02000B00BA61FB61BA69FB69CF
:1023F800B869F969FFF74EF802000B00BA61FB6192
:102408003B191A8813005B009B1802337A6808335B
:102418005B00D31804331B881800FEF78FF8021CE2
:102428007B685B68191C101CFDF73AFF031C181C1D
:10243800FFF7C8FE02000B003A617B617B689B686E
:10244800181CFFF7BFFE02000B0038697969FFF717
:10245800E3FA02000B003A617B613A697B693869EB
:102468007969FFF717F802000B003A617B613B19A5
:102478001A883B1901321A800E23FB181B88632B1C
:1024880000D84FE700222C4B386A796AFEF708FC1F
:1024980002000B003A627B623A6A7B6A10001900FC
:1024A80004F0A3F902000B003A627B620022224B7F
:1024B800B869F969FEF7F4FB02000B00BA61FB6129
:1024C800BA69FB691000190004F08FF902000B00CB
:1024D800BA61FB610022184B38697969FEF7E0FBA5
:1024E80002000B003A617B613A697B6910001900B0
:1024F80004F07BF902000B003A617B610F4B180076
:1025080003F0D6FA386A796AFFF726FE0400B8693C
:10251800F969FFF721FE050038697969FFF71CFEA4
:10252800030007482A00210003F05CFA0023180082
:10253800BD460AB0B0BDC04600005940306A000828
:102548005C6A000880B582B000AF78607B681A6862
:10255800054B1B691B689A4202D1034B02221A736E
:10256800C046BD4602B080BDE801002080B500AF7E
:1025780000F056FB00F014F800F038F900F018F9F4
:1025880000F056F800F0E0F8044B1800FFF792FE50
:10259800FA239B00180000F0C9FBF5E7E8010020CA
:1025A80090B593B000AF14243B19180034231A00D7
:1025B800002103F079FB3B1D180010231A000021AD
:1025C80003F072FB80239B00180002F02DF83B19E2
:1025D80002221A603B1980225200DA603B1900225D
:1025E8001A613B1940225A613B190022DA613B19F2
:1025F800180002F065F8031E01D000F025F93B1D14
:1026080007221A603B1D00225A603B1D00229A6077
:102618003B1D0022DA603B1D0021180002F060FB20
:10262800031E01D000F010F9C046BD4613B090BD9E
:1026380080B584B000AF3B1D18000C231A000021A0
:1026480003F032FB3C4B3D4A1A603B4B8022D205DB
:102658005A60394B00229A60374B0022DA60364BB9
:10266800802292031A61344B04225A61324B0022B1
:102678001A76314B00225A762F4B01229A762E4B2E
:102688000322DA612C4B00225A622B4B00229A62F9
:10269800294B2C2200219954274B00221A63264BE0
:1026A80003225A63244B00229A63234B3C220021C5
:1026B8009954214B0022DA641F4B180000F0AEFC3D
:1026C800031E01D000F0C0F83B1D01221A603B1D1B
:1026D80000225A603B1D00229A603A1D164B1100D9
:1026E800180001F001F8031E01D000F0ADF83B1D01
:1026F800134A1A603B1D04225A603A1D0E4B110002
:10270800180000F0F1FF031E01D000F09DF83B1DFA
:102718000C4A1A603B1D08225A603A1D064B1100EC
:10272800180000F0E1FF031E01D000F08DF8C0464C
:10273800BD4604B080BDC04694000020002401407E
:10274800020000040400000880B500AF164B174AC9
:102758001A60154BE12252025A60134B00229A600C
:10276800114B0022DA60104B00221A610E4B0C222A
:102778005A610D4B00229A610B4B0022DA610A4B19
:1027880000221A62084B00225A62074B00229A6202
:10279800054B180002F04EFC031E01D000F054F85F
:1027A800C046BD4680BDC0465401002000440040DC
:1027B80080B582B000AF0C4B9A6B0B4B01210A43DA
:1027C8009A63094B9B6B012213407B607B68002254
:1027D8000021092001F040FB092001F052FBC0460E
:1027E800BD4602B080BDC0460010024080B584B02E
:1027F80000AF144B5A6B134B04210A435A63114B15
:102808005B6B04221340FB60FB680E4B5A6B0D4B4D
:1028180020210A435A630B4B5B6B20221340BB6099
:10282800BB68084B5A6B074B01210A435A63054B97
:102838005B6B012213407B607B68C046BD4604B0D9
:1028480080BDC0460010024080B500AF72B6C046D9
:10285800FEE7000080B582B000AF0F4B1A6C0E4B3C
:1028680001210A431A640C4B1B6C012213407B6044
:102878007B68094BDA6B084B802149050A43DA6308
:10288800054BDA6B80235B0513403B603B68C04611
:10289800BD4602B080BDC0460010024090B58BB066
:1028A80000AF786014243B19180014231A00002183
:1028B80003F0FAF97B681B68314A93425CD1314BCB
:1028C8001A6C304B802149030A431A642D4B1A6C49
:1028D80080235B0313403B613B692A4B5A6B294BAE
:1028E80001210A435A63274B5B6B01221340FB60AB
:1028F800FB683B1907221A603B1903225A603B19EF
:1029080000229A603A19A023DB051100180001F093
:1029180027FD1D4B1D4A1A601B4B05225A601A4B96
:1029280000229A60184B0022DA60174B80221A6145
:10293800154B802292005A61134B802212019A6132
:10294800114B0022DA61104B00221A620E4B18005C
:1029580001F0B4FA031E01D0FFF776FF7B680A4A3C
:102968001A65094B7A689A62002201210C2001F04D
:1029780073FA0C2001F085FAC046BD460BB090BD35
:102988000024014000100240F80000200800024026
:1029980090B58BB000AF786014243B19180014234D
:1029A8001A00002103F080F97B681B681B4A9342D8
:1029B80030D11B4BDA6B1A4B802189020A43DA6348
:1029C800174BDA6B80239B0213403B613B69144B26
:1029D8005A6B134B01210A435A63114B5B6B01225B
:1029E8001340FB60FB6821007B180E4A1A607B18B5
:1029F80002225A607B1800229A607B180022DA6053
:102A08007B1801221A617A18A023DB05110018002F
:102A180001F0A6FCC046BD460BB090BD0044004086
:102A2800001002400840000080B500AFFEE780B506
:102A380000AFFEE780B500AFC046BD4680BD80B59B
:102A480000AFC046BD4680BD80B500AF00F052F96A
:102A5800C046BD4680BD000080B500AF034B1800DE
:102A680001F03CFBC046BD4680BDC046F8000020D2
:102A780080B500AF034B180000F006FDC046BD4608
:102A880080BDC0469400002080B586B000AFF860D5
:102A9800B9607A6000237B610AE000E000BF0100B2
:102AA800BB685A1CBA60CAB21A707B6901337B6171
:102AB8007A697B689A42F0DB7B681800BD4606B0ED
:102AC80080BD80B586B000AFF860B9607A60002339
:102AD8007B6109E0BB685A1CBA601B781800FFF7D5
:102AE800D7FB7B6901337B617A697B689A42F1DBAA
:102AF8007B681800BD4606B080BD80B582B000AFC7
:102B0800786001235B421800BD4602B080BD80B5E5
:102B180082B000AF786039603B68802292015A60C9
:102B280000231800BD4602B080BD80B582B000AF5A
:102B3800786001231800BD4602B080BD80B584B01E
:102B480000AFF860B9607A6000231800BD4604B091
:102B580080BD000080B586B000AF7860144A154B80
:102B6800D31A7B617B693B61134B1B68002B02D135
:102B7800114B124A1A60104B1A687B68D3183A69CD
:102B88009A4207D203F0E6F803000C221A600123E8
:102B98005B4209E0084B1B68FB60074B1A687B68BF
:102BA800D218054B1A60FB681800BD4606B080BDF8
:102BB800002000200004000054040020A805002084
:102BC80080B500AFC046BD4680BD00000D488546B3
:102BD800FFF7F6FF0C480D490D4A002302E0D458D0
:102BE800C4500433C4188C42F9D30A4A0A4C00234F
:102BF80001E013600432A242FBD303F0B1F8FFF7FF
:102C0800B5FCFEE70020002000000020780000202E
:102C1800606B000878000020A8050020FEE700008F
:102C280080B582B000AFFB1D00221A700B4B1A68EA
:102C38000A4B802149000A431A60032000F010F86B
:102C4800031E03D0FB1D01221A7001E0FFF702FEEC
:102C5800FB1D1B781800BD4602B080BD0020024055
:102C680090B585B000AF78600F23FB1800221A706A
:102C78001D4B1B78002B2BD01C4B1C681A4B1B7848
:102C88001900FA239800FDF741FA03001900200003
:102C9800FDF73CFA0300180001F003F9031E12D1F6
:102CA8007B68032B0AD8796801235B42002218004D
:102CB80001F0D2F80E4B7A681A600DE00F23FB186A
:102CC80001221A7008E00F23FB1801221A7003E092
:102CD8000F23FB1801221A700F23FB181B7818000A
:102CE800BD4605B090BDC046080000200000002089
:102CF8000400002080B500AF054B1B781A00054B77
:102D08001B68D218034B1A60C046BD4680BDC0463A
:102D1800080000205804002080B500AF024B1B6853
:102D28001800BD4680BDC0465804002080B584B058
:102D380000AF7860FFF7F0FF0300BB607B68FB60C3
:102D4800FB68013305D00A4B1B781A00FB689B18F7
:102D5800FB60C046FFF7E0FF0200BB68D31AFA68C1
:102D68009A42F7D8C046C046BD4604B080BDC046AA
:102D78000800002080B582B000AF786039607B68B9
:102D88001B68054A1A403B681A437B681A60C046AC
:102D9800BD4602B080BDC046FFFF3FFE80B582B091
:102DA80000AF78607B681A68E0235B041340180062
:102DB800BD4602B080BD80B584B000AFF860B96090
:102DC8007A60FB685B69BA6804210A400721914070
:102DD8000A00D2431A40BB6804210B407968994025
:102DE8000B001A43FB685A61C046BD4604B080BD5B
:102DF80080B582B000AF786039607B685B693A68FB
:102E080004210A40072191400A001A403B68042126
:102E18000B40DA4013001800BD4602B080BD80B5F3
:102E280082B000AF78607B68DA68C0231B0113406A
:102E380001D1012300E000231800BD4602B080BD87
:102E480080B584B000AFF860B9607A60FB689B6AAF
:102E5800BA681F210A400F2191400A00D2431A4044
:102E68007B689B0E0F211940BB681F2003409940C7
:102E78000B001A43FB689A62C046BD4604B080BD89
:102E880080B582B000AF786039607B689A6A3B6829
:102E98005B035B0B1A437B689A62C046BD4602B06F
:102EA80080BD80B582B000AF786039607B689B6A6E
:102EB8003A685203520BD2431A407B689A62C04662
:102EC800BD4602B080BD80B582B000AF78607B6837
:102ED800DB68032213401800BD4602B080BD000025
:102EE80080B584B000AFF860B9607A60FB685B6950
:102EF800BA681202D2431A40BB681B0279680B40B9
:102F080004490B401A43FB685A61C046BD4604B0E9
:102F180080BDC04600FFFF0780B582B000AF786073
:102F28007B689B68054A1340802252051A437B68D8
:102F38009A60C046BD4602B080BDC046E8FFFF6F3C
:102F480080B582B000AF78607B689A6880235B05A3
:102F58001A4080235B059A4201D1012300E0002337
:102F68001800BD4602B080BD80B582B000AF786061
:102F78007B689B68044A134001221A437B689A6065
:102F8800C046BD4602B080BDE8FFFF7F80B582B075
:102F980000AF78607B689B68044A134002221A439A
:102FA8007B689A60C046BD4602B080BDE8FFFF7FDF
:102FB80080B582B000AF78607B689B6801221340BF
:102FC800012B01D1012300E000231800BD4602B007
:102FD80080BD000080B582B000AF78607B689B68D8
:102FE800044A134004221A437B689A60C046BD46CF
:102FF80002B080BDE8FFFF7F80B582B000AF786087
:103008007B689B6804221340042B01D1012300E054
:1030180000231800BD4602B080BD000080B588B00E
:1030280000AF78601F23FB1800221A700023BB61D1
:1030380000237B610023FB607B68002B01D1012307
:103048007FE17B689B6D002B0AD17B681800FFF736
:1030580025FC7B680022DA657B685422002199549C
:103068007B681B681800FFF76BFF031E15D17B6890
:103078001B681800FFF750FFB44B1B68B4491800D1
:10308800FDF744F8030001335B00FB6002E0FB68D6
:10309800013BFB60FB68002BF9D17B681B681800BB
:1030A800FFF74EFF031E0FD17B689B6D10221A435A
:1030B8007B689A657B68DB6D01221A437B68DA6559
:1030C8001F23FB1801221A707B681B681800FFF782
:1030D80093FF03003B617B689B6D1022134000D077
:1030E80022E13B69002B00D01EE17B689B6D994A69
:1030F800134002221A437B689A657B681B68180094
:10310800FFF756FF031E00D0ADE07B689A687B6826
:103118001B7E9B031A437B685B7EDB031A437B6839
:103128009B7E5B031A437B681B6B002B02D08023BA
:103138005B0100E000231A437B68DB681A437B6865
:103148001B69002B04DA7B681B695B005B0801E0E4
:1031580080239B031A437B682C215B5C5B00134331
:10316800BA691343BB617B6820229B5C012B15D194
:103178007B689B7E002B05D1BB69802252021343DA
:10318800BB610BE07B689B6D20221A437B689A65C4
:103198007B68DB6D01221A437B68DA657B685B6AB2
:1031A800002B0AD07B685A6AE0235B001A407B68D0
:1031B8009B6A1343BA691343BB617B681B68DB686E
:1031C800654A134019007B681B68BA690A43DA60CC
:1031D8007B685B689B0F9A077B68DB6C13437A6993
:1031E80013437B617B683C229B5C012B11D17B687C
:1031F8005B689B0F9A077B681B6C1A437B685B6C48
:103208001A437B689B6C1A437B691343012213435F
:103218007B617B681B681B69504A134019007B68F7
:103228001B687A690A431A617B685A68C0231B06BF
:103238009A4218D07B685A688023DB059A4212D0DC
:103248007B685A6880231B069A420CD0444B1B6843
:10325800444A134019007B685A68F0239B031A40BC
:103268003F4B0A431A607B6818687B685B6B1A00DF
:103278000021FFF7A0FD7B6818687B689B6B3A49C3
:103288001A00FFF798FD7B681B69002B09D17B6842
:103298001B689A6A7B681B68102149420A439A6234
:1032A80018E07B681A6980239B039A4212D17B68D5
:1032B8001B689B6A7B68DB69013B9B001C221340EF
:1032C800102252429A4011007B681A6E7B681B6874
:1032D8000A439A627B681B6800211800FFF788FD83
:1032E80002007B685B6B9A420BD17B680022DA652F
:1032F8007B689B6D0322934301221A437B689A657E
:103308001CE07B689B6D1222934310221A437B6852
:103318009A657B68DB6D01221A437B68DA651F2397
:10332800FB1801221A7009E07B689B6D10221A4372
:103338007B689A651F23FB1801221A701F23FB184C
:103348001B781800BD4608B080BDC04600000020AC
:10335800400D0300FDFEFFFF0102FEFF02FCFF1F00
:1033680008270140FFFFC3FF04FFFF07B0B586B081
:1033780000AFF860B9607A60FB681B681800FFF757
:103388003BFE031E6CD1FB6854229B5C012B01D1D0
:1033980002236CE0FB68542201219954FB681B68E6
:1033A800DB680122134013D1FB681B681800FFF784
:1033B800FFFD031E04D0FB681B681800FFF7E6FD3D
:1033C800FB681B68DA68FB681B6801210A43DA603E
:1033D80017257C19FB68180000F05EFB03002370BA
:1033E8002C003B191B78002B3ED1FB689B6D224AB1
:1033F8001340802252001A43FB689A65FB6800223A
:10340800DA65FB681B6D1D4ADA62FB681B6D1C4A96
:103418001A63FB681B6D1B4A5A63FB681B681C22F6
:103428001A60FB68542200219954FB681B685A688B
:10343800FB681B6810210A435A60FB68186DFB681B
:103448001B6840331900BA683C197B6800F0C0FD5E
:1034580003002370FB681B681800FFF7BBFD03E03F
:103468001723FB1802221A701723FB181B78180061
:10347800BD4606B0B0BDC046FEF0FFFFAD3B00083C
:10348800753C0008933C000880B586B000AF7860B2
:1034980000237B617B681B681B683B617B681B683A
:1034A8005B68FB603B690222134017D0FB6802226D
:1034B800134013D07B689B6D1022134006D17B68A4
:1034C8009B6D802212011A437B689A657B681800FD
:1034D80000F006FC7B681B6802221A603B69042224
:1034E800134003D0FB680422134007D13B6908222C
:1034F80013404DD0FB680822134049D07B689B6D70
:103508001022134006D17B689B6D802292001A43DB
:103518007B689A657B681B681800FFF780FC031EB0
:103528002ED07B689B7E002B2AD17B681B681B688A
:1035380008221340082B23D17B681B681800FFF76B
:103548005BFD031E10D17B681B685A687B681B688B
:103558000C218A435A607B689B6D564A13400122AE
:103568001A437B689A650BE07B689B6D20221A439F
:103578007B689A657B68DB6D01221A437B68DA6594
:103588007B681800FEF7DEFF7B681B680C221A6058
:103598003B698022134012D0FB68802213400ED072
:1035A8007B689B6D802252021A437B689A657B6810
:1035B800180000F089F87B681B6880221A603A6955
:1035C80080235B00134014D0FA6880235B0013400B
:1035D8000FD07B689B6D802292021A437B689A65A4
:1035E8007B68180000F06CFB7B681B688022520027
:1035F8001A603A6980239B00134014D0FA6880232C
:103608009B0013400FD07B689B6D8022D2021A4327
:103618007B689A657B68180000F05AFB7B681B681A
:10362800802292001A603B69102213402BD0FB685D
:103638001022134027D07B681B6B002B02D101237B
:103648007B6108E07B681B681800FFF73CFC031EE1
:1036580001D001237B617B69012B10D17B689B6DB5
:103668008022D2001A437B689A657B68DB6D022250
:103678001A437B68DA657B68180000F02DF87B68D0
:103688001B6810221A603A6980239B0113400DD0F1
:10369800FA6880239B01134008D07B68180000F06B
:1036A80027FB7B681B68802292011A60C046BD46D2
:1036B80006B080BDFEFEFFFF80B582B000AF786027
:1036C800C046BD4602B080BD80B582B000AF78600C
:1036D800C046BD4602B080BD80B582B000AF7860FC
:1036E800C046BD4602B080BD80B586B000AF7860E8
:1036F80039601723FB1800221A700023FB607B68CF
:1037080054229B5C012B01D10223C0E17B68542227
:10371800012199547B681B681800FFF76DFC031E94
:1037280000D0A3E13B685B68022B00D143E17B68D2
:103738001A6980231B069A4204D07B681B69C14A18
:10374800934208D17B681A683B681B68190010000F
:10375800FFF796FBC9E07B681A6E3B685B681F2120
:103768000B400F2199400B00DB43134019003B68C5
:103778001B685B035B0B05D13B681B689B0E1F2214
:10378800134098E03B681B680122134000D091E089
:103798003B681B680222134000D089E03B681B6825
:1037A8000422134000D081E03B681B6808221340C4
:1037B80000D079E03B681B681022134000D071E00C
:1037C8003B681B682022134000D069E03B681B68F7
:1037D8004022134000D061E03B681B688022134000
:1037E80000D059E03B681A6880235B00134051D130
:1037F8003B681A6880239B00134049D13B681A68CC
:103808008023DB00134041D13B681A6880231B01E9
:10381800134039D13B681A6880235B01134031D1CA
:103828003B681A6880239B01134029D13B681A68BA
:103838008023DB01134021D13B681A6880231B02D7
:10384800134019D13B681A6880235B02134011D1D9
:103858003B681A6880239B02134009D13B681A68A9
:103868008023DB02134001D0122324E0002322E04E
:10387800112320E010231EE00F231CE00E231AE082
:103888000D2318E00C2316E00B2314E00A2312E0A2
:10389800092310E008230EE007230CE006230AE0C2
:1038A800052308E0042306E0032304E0022302E0E2
:1038B800012300E000233A6852681F200240934029
:1038C8000A001A437B681A663B685B689B085A1CA7
:1038D8007B68DB699A4208D87B6818683B68596836
:1038E8003B681B681A00FFF7ABFA7B6818683B68EF
:1038F80019683B689B681A00FFF7F2FA3B681B6877
:10390800002B00DBBCE0504B1800FFF747FA030020
:103918003B613B681B684D4A934222D13A69802338
:103928001B0413401DD13B69802212041343464AED
:1039380019001000FFF71EFA454B1B68454918008F
:10394800FCF7E4FB03005A1C13005B009B189B0068
:10395800FB6002E0FB68013BFB60FB68002BF9D1D0
:103968008EE03B681B683C4A93420ED13A6980233B
:103978005B04134009D13B69802252041343324A45
:1039880019001000FFF7F6F97AE03B681B68334A24
:10399800934200D074E03A698023DB03134000D0DF
:1039A8006EE03B698022D2031343274A19001000B6
:1039B800FFF7E0F964E07B681A6980231B069A42E6
:1039C80004D07B681B691F4A934207D17B681A6839
:1039D8003B681B6819001000FFF763FA3B681B6817
:1039E800002B4DDA184B1800FFF7D8F903003B619C
:1039F8003B681B68154A934208D13B69184A134033
:103A0800114A19001000FFF7B5F939E03B681B6847
:103A1800114A934208D13B69124A13400A4A1900D5
:103A28001000FFF7A7F92BE03B681B680B4A93428D
:103A380026D13B690C4A1340034A19001000FFF7CE
:103A480099F91DE00400008008270140001000B02B
:103A580000000020400D0300004000B8002000B422
:103A6800FFFF7FFFFFFFFFFEFFFFBFFF7B689B6D30
:103A780020221A437B689A651723FB1801221A70C3
:103A88007B685422002199541723FB181B781800CF
:103A9800BD4606B080BDC04680B584B000AF786032
:103AA8000023BB607B681B681800FFF781FA031EC0
:103AB80000D069E07B681B689B68364A13400DD0CC
:103AC8007B689B6D10221A437B689A657B68DB6D67
:103AD80001221A437B68DA65012356E07B681B687C
:103AE8001800FFF741FA2C4B1800FFF757F90200AE
:103AF80080231B0413400FD0284B1B68284918004B
:103B0800FCF704FB03000133BB6002E0BB68013B28
:103B1800BB60BB68002BF9D17B685B7E012B33D07F
:103B2800FFF7FAF80300FB6027E07B681B681800C2
:103B3800FFF73EFA031E04D17B681B681800FFF7E5
:103B480013FAFFF7E9F80200FB68D31A022B14D91D
:103B58007B681B681B6801221340012B0DD07B6812
:103B68009B6D10221A437B689A657B68DB6D012286
:103B78001A437B68DA65012307E07B681B681B68CA
:103B880001221340012BD0D100231800BD4604B0F8
:103B980080BDC046170000800827014000000020B3
:103BA800400D030080B584B000AF78607B689B6AE5
:103BB800FB60FB689B6D5022134041D1FB689B6DF5
:103BC800802292001A43FB689A65FB681B681800FC
:103BD800FFF725F9031E2ED0FB689B7E002B2AD108
:103BE800FB681B681B6808221340082B23D1FB685D
:103BF8001B681800FFF700FA031E10D1FB681B684A
:103C08005A68FB681B680C218A435A60FB689B6DE5
:103C1800154A134001221A43FB689A650BE0FB68BA
:103C28009B6D20221A43FB689A65FB68DB6D0122B5
:103C38001A43FB68DA65FB681800FEF783FC0FE09F
:103C4800FB689B6D1022134004D0FB681800FFF737
:103C580043FD05E0FB681B6D5B6B7A6810009847B5
:103C6800C046BD4604B080BDFEFEFFFF80B584B0EF
:103C780000AF78607B689B6AFB60FB681800FFF701
:103C88001BFDC046BD4604B080BD80B584B000AF02
:103C980078607B689B6AFB60FB689B6D40221A43D7
:103CA800FB689A65FB68DB6D04221A43FB68DA65DA
:103CB800FB681800FFF710FDC046BD4604B080BD84
:103CC80080B582B000AF7860C046BD4602B080BD06
:103CD80080B582B000AF7860C046BD4602B080BDF6
:103CE80080B582B000AF7860C046BD4602B080BDE6
:103CF80080B582B000AF7860C046BD4602B080BDD6
:103D080080B582B000AF0200FB1D1A70FB1D1B7846
:103D18007F2B09D8FB1D1B781A001F231A40044B60
:103D2800012191400A001A60C046BD4602B080BD1C
:103D380000E100E090B583B000AF02003960FB1DE0
:103D48001A70FB1D1B787F2B28D82F4AFB1D1B7868
:103D58005BB29B08C0339B009B58FA1D1278110078
:103D680003220A40D200FF2191400A00D2431A40A0
:103D780011003B689B01FF221A40FB1D1B781800AD
:103D880003230340DB009A401F48FB1D1B785BB2EE
:103D98009B080A43C0339B001A5031E01B4AFB1DA5
:103DA8001B7819000F230B40083B9B0806339B0028
:103DB800D31804331B68FA1D1278110003220A4035
:103DC800D200FF2191400A00D2431A4011003B68FB
:103DD8009B01FF221A40FB1D1B7818000323034098
:103DE800DB009A400948FB1D1B781C000F23234069
:103DF800083B9B080A4306339B00C31804331A6028
:103E0800C046BD4603B090BD00E100E000ED00E013
:103E180080B582B000AF78607B685A1E80235B044F
:103E28009A4201D3012310E00A4B7A68013A5A609A
:103E380001235B4203211800FFF77CFF054B00229A
:103E48009A60044B07221A6000231800BD4602B08E
:103E580080BDC04610E000E080B584B000AFB96016
:103E68007A600F217B18021C1A70BA687B181B78BD
:103E78005BB211001800FFF75DFFC046BD4604B0F5
:103E880080BD80B582B000AF0200FB1D1A70FB1D1B
:103E98001B785BB21800FFF733FFC046BD4602B07F
:103EA80080BD80B582B000AF78607B681800FFF7EE
:103EB800AFFF03001800BD4602B080BD80B582B0D8
:103EC80000AF78607B68002B01D1012377E07B6825
:103ED8001B683D4A9446634414211800FCF716F900
:103EE80003009A007B681A647B6825220221995492
:103EF8007B681B681A687B681B6834490A401A602B
:103F08007B681B6819687B689A687B68DB681A435A
:103F18007B681B691A437B685B691A437B689B69EA
:103F28001A437B68DB691A437B681B6A1A437B6800
:103F38001B680A431A607B68180000F0C1F97B68A7
:103F48009A688023DB019A4202D17B6800225A607A
:103F58007B685A687B685B6C3F210A401A607B6803
:103F68009B6C7A68D26C5A607B685B68002B11D0B6
:103F78007B685B68042B0DD87B68180000F0CCF9CF
:103F88007B681B6D00221A607B685B6D7A68926D96
:103F98005A6008E07B6800221A657B6800225A652F
:103FA8007B6800229A657B680022DA637B68252299
:103FB800012199547B682422002199540023180078
:103FC800BD4602B080BDC046F8FFFDBF0F80FFFFB1
:103FD80080B586B000AFF860B9607A603B6017239F
:103FE800FB1800221A70FB6824229B5C012B01D16C
:103FF80002236FE0FB68242201219954FB682522E3
:104008009B5CDBB2012B57D1FB6825220221995416
:10401800FB680022DA63FB681B681A68FB681B6888
:1040280001218A431A603B687A68B968F86800F029
:1040380007F9FB681B6B002B08D0FB681B681A6824
:10404800FB681B680E210A431A600FE0FB681B68B7
:104058001A68FB681B6804218A431A60FB681B689E
:104068001A68FB681B680A210A431A60FB685B6CC4
:104078001A6880235B02134008D0FB685B6C1A68DF
:10408800FB685B6C802149000A431A60FB681B6D62
:10409800002B08D0FB681B6D1A68FB681B6D80211C
:1040A80049000A431A60FB681B681A68FB681B68AA
:1040B80001210A431A600AE0FB688022DA63FB6880
:1040C8002422002199541723FB1801221A70172360
:1040D800FB181B781800BD4606B080BD80B584B0BB
:1040E80000AF7860554B1B68FB607B681B681B68DA
:1040F800BB607B681B6C1C22134004229A4013008F
:10410800FA68134027D0BB680422134023D07B6889
:104118001B681B682022134007D17B681B681A683C
:104128007B681B6804218A431A60444B59687B6882
:104138001B6C1C22134004229A40404B0A435A60CD
:104148007B681B6B002B00D173E07B681B6B7A6864
:10415800100098476DE07B681B6C1C2213400222FC
:104168009A401300FA6813402ED0BB68022213400D
:104178002AD07B681B681B68202213400BD17B6800
:104188001B681A687B681B680A218A431A607B6867
:10419800252201219954294B59687B681B6C1C22E4
:1041A800134002229A40254B0A435A607B68242216
:1041B800002199547B68DB6A002B3AD07B68DB6A64
:1041C8007A681000984734E07B681B6C1C22134007
:1041D80008229A401300FA6813402BD0BB680822C3
:1041E800134027D07B681B681A687B681B680E2100
:1041F8008A431A60114B59687B681B6C1C22134058
:1042080001229A400D4B0A435A607B680122DA6307
:104218007B682522012199547B6824220021995426
:104228007B685B6B002B05D07B685B6B7A68100042
:104238009847C046C046BD4604B080BD0000024055
:1042480080B584B000AFF860B9607A603B60FB6805
:104258009B6CFA68D26C5A60FB681B6D002B04D00B
:10426800FB685B6DFA68926D5A60144B5968FB687D
:104278001B6C1C22134001229A40104B0A435A60BF
:10428800FB681B683A685A60FB689B68102B08D16A
:10429800FB681B687A689A60FB681B68BA68DA6012
:1042A80007E0FB681B68BA689A60FB681B687A6855
:1042B800DA60C046BD4604B080BDC046000002407A
:1042C80080B584B000AF78607B681B6C9B08104A8F
:1042D800944663449B001A007B685A647B681B6899
:1042E8001A00FF231340083B14211800FBF70EFFA8
:1042F8000300FB607B68074A9A64FB681F2213402F
:1043080001229A407B68DA64C046BD4604B080BD8D
:10431800008200108008024080B584B000AF786049
:104328007B685B683F221340FB60FB680A4A94463F
:1043380063449B001A007B681A657B68074A5A65C4
:10434800FB68013B0322134001229A407B689A656F
:10435800C046BD4604B080BD3F82001040090240FF
:1043680080B586B000AF7860396000237B6147E193
:104378003B681B6801217A6991400A001340FB6081
:10438800FB68002B00D138E13B685B6803221340CF
:10439800012B05D03B685B6803221340022B30D108
:1043A8007B689B683B617B695B0003229A40130032
:1043B800DA433B6913403B613B68DA687B695B0021
:1043C8009A4013003A6913433B617B683A699A60E3
:1043D8007B685B683B6101227B699A401300DA4382
:1043E8003B6913403B613B685B681B0901221A402B
:1043F8007B699A4013003A6913433B617B683A69C9
:104408005A603B685B6803221340032B17D07B6814
:10441800DB683B617B695B0003229A401300DA4347
:104428003B6913403B613B689A687B695B009A4033
:1044380013003A6913433B617B683A69DA603B6869
:104448005B6803221340022B23D17B69DA087B685F
:1044580008329200D3583B617B69072213409B00C6
:104468000F229A401300DA433B6913403B613B68D3
:104478001A697B6907210B409B009A4013003A692F
:1044880013433B617B69DA087B680832920039691B
:10449800D1507B681B683B617B695B0003229A40B3
:1044A8001300DA433B6913403B613B685B680322B6
:1044B8001A407B695B009A4013003A6913433B61D9
:1044C8007B683A691A603B685A68C0239B021340AC
:1044D80000D192E0504A7B699B0818339B009B5897
:1044E8003B617B6903221340DB000F229A401300D3
:1044F800DA433B6913403B617A68A023DB059A42A3
:1045080013D07B68454A93420DD07B68444A934256
:1045180007D07B68434A934201D1032306E0052371
:1045280004E0022302E0012300E000237A6903216A
:104538000A40D20093403A6913433B6136497B698C
:104548009B0818339B003A695A50334B1B683B61F0
:10455800FB68DA433B6913403B613B685A68802338
:104568005B03134003D03A69FB6813433B612A4B52
:104578003A691A60284B5B683B61FB68DA433B6920
:1045880013403B613B685A6880239B03134003D068
:104598003A69FB6813433B611F4B3A695A601E4AEC
:1045A8008423D3583B61FB68DA433B6913403B6182
:1045B8003B685A6880239B02134003D03A69FB6822
:1045C80013433B61144984223B698B50124A802370
:1045D800D3583B61FB68DA433B6913403B613B6856
:1045E8005A6880235B02134003D03A69FB6813437F
:1045F8003B61094980223B698B507B6901337B61B0
:104608003B681A687B69DA40131E00D0B0E6C046E2
:10461800C046BD4606B080BD0018024000040050E8
:1046280000080050000C005080B584B000AF7860DE
:10463800194B1B68194A13401900174B7A680A432B
:104648001A607A6880239B009A421FD1144B1A681B
:1046580013005B009B185B0012491800FBF756FD1E
:1046680003000133FB6008E0FB68002B03D0FB6804
:10467800013BFB6001E0032309E0074B5A698023F3
:10468800DB001A408023DB009A42EDD0002318009B
:10469800BD4604B080BDC04600700040FFF9FFFF72
:1046A8000000002040420F0080B500AF034B9A681D
:1046B800E023DB0113401800BD4680BD0010024016
:1046C80080B588B000AF78607B68002B01D10123EA
:1046D800F3E27B681B680122134000D17CE0C34BE6
:1046E8009B6838221340BB61C04BDB680322134030
:1046F8007B61BB69102B02D17B69032B02D0BB699C
:10470800082B0BD1B94B1A6880239B02134062D047
:104718007B685B68002B5ED10123CEE27B685A6818
:1047280080235B029A4207D1B04B1A68AF4B8021B5
:1047380049020A431A6020E07B685A68A023DB021A
:104748009A420ED1A94B1A68A84B8021C9020A4384
:104758001A60A64B1A68A54B802149020A431A60C1
:104768000BE0A24B1A68A14BA1490A401A609F4B63
:104778001A689E4B9F490A401A607B685B68002B49
:1047880014D0FEF7C9FA03003B6108E0FEF7C4FA4B
:1047980002003B69D31A642B01D903238DE2934BA2
:1047A8001A6880239B021340F0D015E0FEF7B4FA94
:1047B80003003B6108E0FEF7AFFA02003B69D31A39
:1047C800642B01D9032378E2884B1A6880239B0263
:1047D8001340F0D100E0C0467B681B6802221340FA
:1047E80000D199E0814B9B6838221340BB617F4B15
:1047F800DB68032213407B61BB69102B02D17B6904
:10480800022B02D0BB69002B35D1784B1A68802364
:10481800DB00134005D07B68DB68002B01D1012346
:104828004BE2724B5B68744A134019007B685B6902
:104838001A026E4B0A435A60BB69002B12D16B4BAC
:104848001B686E4A134019007B681A69674B0A4354
:104858001A60664B1B68DB0A07221340684ADA4075
:10486800684B1A60684B1B681800FEF7F9F9031EBD
:1048780051D0012321E27B68DB68002B30D05B4BF1
:104888001B685E4A134019007B681A69574B0A4334
:104898001A60564B1A68554B802149000A431A6022
:1048A800FEF73AFA03003B6108E0FEF735FA02002A
:1048B8003B69D31A022B01D90323FEE14B4B1A683B
:1048C8008023DB001340F0D0484B5B684A4A134012
:1048D80019007B685B691A02444B0A435A601BE063
:1048E800424B1A68414B49490A401A60FEF714FACC
:1048F80003003B6108E0FEF70FFA02003B69D31A98
:10490800022B01D90323D8E1384B1A688023DB0036
:104918001340F0D100E0C0467B681B6808221340B2
:1049280047D0324B9B6838221340182B0AD12F4BA3
:104938001B6E022213403CD07B689B69002B38D148
:104948000123BAE17B689B69002B19D0274B1A6EAB
:10495800264B01210A431A66FEF7DEF903003B6184
:1049680008E0FEF7D9F902003B69D31A022B01D9F6
:104978000323A2E11D4B1B6E02221340F1D018E065
:104988001A4B1A6E194B01218A431A66FEF7C4F9AD
:1049980003003B6108E0FEF7BFF902003B69D31A48
:1049A800022B01D9032388E1104B1B6E022213400E
:1049B800F1D17B681B680422134000D1C6E01F2395
:1049C800FB1800221A70094B9B6838221340202BD1
:1049D8001ED1064BDB6D0222134000D1B6E07B6886
:1049E8009B68002B00D0B1E0012366E10010024073
:1049F800FFFFFEFFFFFFFBFFFF80FFFFFFC7FFFF7B
:104A08000024F4000000002004000020FFFEFFFF47
:104A1800AC4BDA6B80235B05134001D1012300E026
:104A28000023002B11D0A74BDA6BA64B8021490538
:104A38000A43DA63A34BDA6B80235B051340FB6000
:104A4800FB681F23FB1801221A709F4B1A688023EA
:104A58005B0013401AD19C4B1A689B4B802149007C
:104A68000A431A60FEF758F903003B6108E0FEF7B5
:104A780053F902003B69D31A022B01D903231CE125
:104A8800914B1A6880235B001340F0D07B689B68C9
:104A9800012B06D18B4BDA6D8A4B01210A43DA656B
:104AA8001CE07B689B68052B0CD1864BDA6D854B27
:104AB80004210A43DA65834BDA6D824B01210A43EC
:104AC800DA650BE07F4BDA6D7E4B01218A43DA65AC
:104AD8007C4BDA6D7B4B04218A43DA657B689B68E3
:104AE800002B14D0FEF718F903003B6109E0FEF72C
:104AF80013F902003B69D31A744A934201D903237C
:104B0800DBE0704BDB6D02221340F0D013E0FEF7C0
:104B180003F903003B6109E0FEF7FEF802003B6978
:104B2800D31A6A4A934201D90323C6E0654BDB6D69
:104B380002221340F0D11F23FB181B78012B05D14B
:104B4800604BDA6B5F4B62490A40DA637B68DB696A
:104B5800002B00D1B0E05B4B9B6838221340102B30
:104B680000D178E07B68DB69022B53D1554B1A687A
:104B7800544B58490A401A60FEF7CEF803003B61CF
:104B880008E0FEF7C9F802003B69D31A022B01D9E5
:104B9800032392E04B4B1A6880239B041340F0D107
:104BA800484BDB684C4A134019007B681A6A7B68DB
:104BB8005B6A1A437B689B6A1B021A437B68DB6A41
:104BC8001A437B681B6B1A433E4B0A43DA603D4B22
:104BD8001A683C4B802149040A431A60394BDA6849
:104BE800384B802149050A43DA60FEF795F803003F
:104BF8003B6108E0FEF790F802003B69D31A022BEC
:104C080001D9032359E02F4B1A6880239B041340D2
:104C1800F0D051E02B4B1A682A4B2E490A401A60F3
:104C2800FEF77AF803003B6108E0FEF775F802002A
:104C38003B69D31A022B01D903233EE0214B1A68A2
:104C480080239B041340F0D11E4BDA681D4B234987
:104C58000A40DA6030E07B68DB69012B01D101236F
:104C68002BE0184BDB687B617B6903221A407B6869
:104C78001B6A9A421ED17B6970221A407B685B6A64
:104C88009A4217D17A69FE23DB011A407B689B6A36
:104C98001B029A420ED17A69F8239B031A407B685B
:104CA800DB6A9A4206D17B695B0F5A077B681B6BEC
:104CB8009A4201D0012300E000231800BD4608B045
:104CC80080BDC046001002400070004088130000FC
:104CD800FFFFFFEFFFFFFFFE8C80C11FFCFFFEEF11
:104CE80080B584B000AF786039607B68002B01D153
:104CF8000123E9E0764B1B68072213403A689A4281
:104D08001ED9734B1B68072293431900704B3A68EE
:104D18000A431A60FEF700F80300FB6009E0FDF79C
:104D2800FBFF0200FB68D31A6A4A934201D90323A6
:104D3800CAE0674B1B68072213403A689A42EED1D3
:104D48007B681B680222134015D07B681B6804220D
:104D5800134006D0604B9A685F4BE021C9010A43B3
:104D68009A605D4B9B685D4A134019007B689A689E
:104D7800594B0A439A607B681B680122134057D03D
:104D88007B685B68012B07D1534B1A6880239B0211
:104D980013402BD1012397E07B685B68022B07D176
:104DA8004D4B1A6880239B0413401FD101238BE0CD
:104DB8007B685B68002B07D1474B1A688023DB00B0
:104DC800134013D101237FE07B685B68032B06D176
:104DD800414B1B6E0222134008D1012374E03E4B65
:104DE800DB6D0222134001D101236DE03A4B9B6831
:104DF8000722934319007B685A68374B0A439A6025
:104E0800FDF78AFF0300FB6009E0FDF785FF02005C
:104E1800FB68D31A2F4A934201D9032354E02E4B3F
:104E28009B6838221A407B685B68DB009A42ECD1A9
:104E3800274B1B68072213403A689A421ED2244B1C
:104E48001B68072293431900214B3A680A431A60EA
:104E5800FDF762FF0300FB6009E0FDF75DFF02005C
:104E6800FB68D31A1B4A934201D903232CE0184B41
:104E78001B68072213403A689A42EED17B681B6888
:104E88000422134009D0144B9B68154A134019009B
:104E98007B68DA68104B0A439A6000F029F8010031
:104EA8000D4B9B681B0A0F221A400E4B9200D358D9
:104EB8001F2213400A00DA400B4B1A600B4B1B6889
:104EC8001800FDF7CDFE03001800BD4604B080BDF4
:104ED800002002408813000000100240FFF0FFFF8E
:104EE800FF8FFFFFAC6A00080000002004000020CC
:104EF80080B586B000AF3C4B9B68382213400FD179
:104F0800394B1B68DB0A0722134001229A40130021
:104F18003B6039683548FBF7F9F803003B615DE011
:104F2800314B9B6838221340082B02D1304B3B6130
:104F380054E02D4B9B6838221340102B38D12A4B54
:104F4800DB6803221340FB60274BDB681B09072241
:104F580013400133BB60FB68032B0DD1B9682448AB
:104F6800FBF7D4F8030019001F4BDB681B0A7F22EC
:104F780013404B437B610DE0B9681C48FBF7C6F84A
:104F880003001900184BDB681B0A7F2213404B43B0
:104F98007B61C046144BDB685B0F0722134001336B
:104FA8007B6079687869FBF7B1F803003B6115E02D
:104FB8000D4B9B6838221340202B03D180231B0202
:104FC8003B610BE0084B9B6838221340182B03D138
:104FD800FA23DB013B6101E000233B613B691800D8
:104FE800BD4606B080BDC046001002400024F40053
:104FF80000127A0080B500AF024B1B681800BD464E
:1050080080BDC04600000020B0B500AFFFF7F2FF3A
:105018000400FFF749FB03001A0B054B9200D35815
:105028001F221340DC4023001800BD46B0BDC04617
:10503800EC6A000880B582B000AF78607B68002B0E
:1050480001D1012346E07B6888229B58002B07D1B9
:105058007B688422002199547B681800FDF798FC2E
:105068007B688822242199507B681B681A687B68B2
:105078001B6801218A431A607B68180000F0CCF88D
:105088000300012B01D1012324E07B689B6A002BDC
:1050980003D07B68180000F029FA7B681B685A68FF
:1050A8007B681B680D490A405A607B681B689A68D0
:1050B8007B681B682A218A439A607B681B681A6888
:1050C8007B681B6801210A431A607B68180000F09E
:1050D800C1FA03001800BD4602B080BDFFB7FFFF4C
:1050E80080B58AB002AFF860B9603B60BB1D1A801A
:1050F800FB6888229B58202B00D088E0BB68002BD7
:1051080003D0BB1D1B88002B01D1012380E0FB6865
:105118009A6880235B019A4209D1FB681B69002BBE
:1051280005D1BB680122134001D0012370E0FB6860
:10513800902200219950FB68882221219950FDF77F
:10514800EBFD03007B61FB68BA1D542112885A529B
:10515800FB68BA1D562112885A52FB689A68802348
:105168005B019A4208D1FB681B69002B04D100231C
:10517800FB61BB68BB6103E0BB68FB610023BB61EB
:105188002CE07A69F8683B680093130000228021BC
:1051980000F0AEFA031E01D0032339E0FB69002BAF
:1051A8000BD1BB691B881A00FB681B68D205D20D9E
:1051B8009A62BB690233BB6107E0FB691A78FB6836
:1051C8001B689A62FB690133FB61FB6856229B5A94
:1051D8009BB2013B99B2FB6856229952FB68562252
:1051E8009B5A9BB2002BCCD17A69F8683B68009334
:1051F80013000022402100F07BFA031E01D0032394
:1052080006E0FB68882220219950002300E0022351
:105218001800BD4608B080BD80B588B000AF786082
:105228001A23FB1800221A707B689A687B681B692E
:105238001A437B685B691A437B68DB691343FB612C
:105248007B681B681B68A14A134019007B681B68B0
:10525800FA690A431A607B681B685B689C4A1340BA
:1052680019007B68DA687B681B680A435A607B68A8
:105278009B69FB617B681B6AFA691343FB617B6866
:105288001B689B68934A134019007B681B68FA697E
:105298000A439A607B681B68DB6A0F2293431900F4
:1052A8007B685A6A7B681B680A43DA627B681B68FA
:1052B800894A934227D1894B5B6D03221340032B04
:1052C80017D01BD8022B0AD018D8002B02D0012BDC
:1052D8000AD013E01B23FB1800221A7021E01B23BD
:1052E800FB1802221A701CE01B23FB1804221A70F8
:1052F80017E01B23FB1808221A7012E01B23FB1867
:1053080010221A700DE07B681B68754A934204D11D
:105318001B23FB1800221A7003E01B23FB18102222
:105328001A707B68DA6980231B029A4200D065E014
:105338001B23FB181B78082B15D018DC042B0DD069
:1053480015DC002B02D0022B05D010E0FFF75CFE25
:1053580003007B6112E0634B7B610FE0FFF7C8FD40
:1053680003007B610AE080231B027B6106E00023C7
:105378007B611A23FB1801221A70C0467B69002B37
:1053880000D18DE07B685A6A574B5200D35A1900F6
:105398007869FAF7BBFE03005A007B685B685B0814
:1053A800D2187B685B6819001000FAF7AFFE03009B
:1053B8003B613B690F2B1CD93A6980235B029A42F7
:1053C80017D23B699AB20E203B180F218A431A80E4
:1053D8003B695B089BB20722134099B23B183A1805
:1053E80012880A431A807B681B683A181288DA60A8
:1053F80056E01A23FB1801221A7051E01B23FB18F0
:105408001B78082B15D018DC042B0DD015DC002BCD
:1054180002D0022B05D010E0FFF7F6FD03007B61F8
:1054280012E0304B7B610FE0FFF762FD03007B6108
:105438000AE080231B027B6106E000237B611A23BC
:10544800FB1801221A70C0467B69002B28D07B68A4
:105458005A6A254B5200D35A19007869FAF756FE52
:1054680003001A007B685B685B08D2187B685B687E
:1054780019001000FAF74AFE03003B613B690F2B45
:105488000AD93A6980235B029A4205D23B699AB2EB
:105498007B681B68DA6003E01A23FB1801221A7084
:1054A8007B686A22012199527B68682201219952FE
:1054B8007B6800225A677B6800229A671A23FB18C8
:1054C8001B781800BD4608B080BDC046F369FFCF01
:1054D800FFCFFFFFFFF4FF1100380140001002402A
:1054E800004400400024F4000C6B000880B582B032
:1054F80000AF78607B689B6A012213400BD07B6801
:105508001B685B684A4A134019007B68DA6A7B6843
:105518001B680A435A607B689B6A022213400BD0BF
:105528007B681B685B68434A134019007B681A6BE9
:105538007B681B680A435A607B689B6A0422134095
:105548000BD07B681B685B683B4A134019007B687B
:105558005A6B7B681B680A435A607B689B6A0822FF
:1055680013400BD07B681B685B68344A13401900F2
:105578007B689A6B7B681B680A435A607B689B6AE6
:10558800102213400BD07B681B689B682C4A134081
:1055980019007B68DA6B7B681B680A439A607B6832
:1055A8009B6A202213400BD07B681B689B68254AA6
:1055B800134019007B681A6C7B681B680A439A6061
:1055C8007B689B6A402213401DD07B681B685B6820
:1055D8001D4A134019007B685A6C7B681B680A4394
:1055E8005A607B685A6C80235B039A420BD17B68B4
:1055F8001B685B68154A134019007B689A6C7B68C6
:105608001B680A435A607B689B6A802213400BD050
:105618007B681B685B680E4A134019007B68DA6C6C
:105628007B681B680A435A60C046BD4602B080BD0D
:10563800FFFFFDFFFFFFFEFFFFFFFBFFFF7FFFFFF9
:10564800FFEFFFFFFFDFFFFFFFFFEFFFFFFF9FFF02
:10565800FFFFF7FF80B586B002AF78607B689022C5
:1056680000219950FDF758FB0300FB607B681B681D
:105678001B6808221340082B0CD1FB688022910379
:1056880078681A4A0092002200F032F8031E01D00E
:10569800032326E07B681B681B6804221340042B45
:1056A8000CD1FB688022D1037868104A009200224E
:1056B80000F01EF8031E01D0032312E07B68882245
:1056C800202199507B688C22202199507B680022E8
:1056D800DA667B6800221A677B6884220021995465
:1056E80000231800BD4604B080BDC046FFFFFF017F
:1056F80080B594B000AFF860B9603B60FB1D1A70CC
:10570800A7E0BB6D013300D1A3E0FDF705FB020064
:105718003B68D31ABA6D9A4202D3BB6D002B3FD1B6
:10572800EFF31083BB62BB6A7B640123FB62FB6AF5
:1057380083F31088C046FB681B681A68FB681B68FF
:105748004E490A401A607B6C3B633B6B83F31088BD
:10575800C046EFF310837B637B6B3B640123BB6321
:10576800BB6B83F31088C046FB681B689A68FB68AC
:105778001B6801218A439A603B6CFB63FB6B83F3D4
:105788001088C046FB68882220219950FB688C222B
:1057980020219950FB68842200219954032369E051
:1057A800FB681B681B680422134052D0FB681B6807
:1057B800DA6980231B011A4080231B019A4248D1D1
:1057C800FB681B68802212011A62EFF310833B61A9
:1057D8003B69FB6401237B617B6983F31088C046C6
:1057E800FB681B681A68FB681B6824490A401A6032
:1057F800FB6CBB61BB6983F31088C046EFF3108371
:10580800FB61FB69BB6401233B623B6A83F310883D
:10581800C046FB681B689A68FB681B6801218A43BD
:105828009A60BB6C7B627B6A83F31088C046FB6816
:10583800882220219950FB688C2220219950FB68EE
:10584800902220219950FB68842200219954032337
:1058580010E0FB681B68DB69BA681340BA68D31AA2
:105868005A425341DBB21A00FB1D1B789A4200D101
:1058780047E700231800BD4614B080BD5FFEFFFF58
:10588800002310B504000360436083608181436690
:105898001900C28103614361836108225C3000F012
:1058A80003FA054B24626362044BA362044BE36270
:1058B800044B236310BDC046CD5A0008F55A0008B2
:1058C8002D5B0008595B000810B5034A03490448DA
:1058D80000F06CF810BDC0460C0000204D660008B2
:1058E8001800002041680B4B10B50400994201D004
:1058F80000F0A8FEA168084B994202D0200000F0F1
:10590800A1FEE168054B994202D0200000F09AFE02
:1059180010BDC0465C040020C40400202C050020F3
:1059280010B5094B094A04211A6009480022FFF7FB
:10593800A7FF012209210748FFF7A2FF022212212F
:105948000548FFF79DFF10BD94050020D1580008B9
:105958005C040020C40400202C05002010B5024877
:1059680000F022FA10BDC0469D05002010B502487F
:1059780000F01BFA10BDC0469D05002010B50400BC
:10598800FFF7ECFF236A002B02D0FFF7EFFF10BDF3
:10599800044B2362044B1B68002BF6D1FFF7C0FFB2
:1059A800F3E7C046ED58000894050020F7B5140049
:1059B800002600900191A5686768013F04D5246816
:1059C800002CF8D13000FEBDAB89012B08D90E227E
:1059D800AB5E013304D029000098019B9847064329
:1059E8006835EAE70FB407B5054904AB086804CB86
:1059F8008168019300F000FB03B008BC04B01847AD
:105A080064000020036A70B505000E008468002B4E
:105A180001D1FFF7B3FF636EDB0705D4A3899B05AC
:105A280002D4A06D00F0C0F9A3891B0702D5236931
:105A3800002B1FD12100280000F0D2F8002819D02F
:105A480001256D42636EDB0705D4A3899B0502D44B
:105A5800A06D00F0AAF9280070BD0136A360002BE4
:105A680004DAA2699A4216DC0A2914D023685A1C5F
:105A780022601970A3683178013B0029EDD1A36039
:105A8800002B0FDA280022000A3100F067F80A25F7
:105A98000130D7D1D4E72200280000F05FF80130A8
:105AA800E8D1CDE70A2523685A1C22601D70C9E792
:105AB80010B5034B01001868FFF7A4FF10BDC046DE
:105AC8006400002070B50C000E25495F00F01AF93B
